{
  "_format": "hh-sol-artifact-1",
  "contractName": "EmbodimentRegistry",
  "sourceName": "contracts/EmbodimentRegistry.sol",
  "abi": [
    {
      "anonymous": false,
      "inputs": [
        {
          "indexed": true,
          "internalType": "bytes32",
          "name": "classHash",
          "type": "bytes32"
        },
        {
          "indexed": false,
          "internalType": "address",
          "name": "owner",
          "type": "address"
        },
        {
          "indexed": false,
          "internalType": "string",
          "name": "className",
          "type": "string"
        }
      ],
      "name": "ClassRegistered",
      "type": "event"
    },
    {
      "anonymous": false,
      "inputs": [
        {
          "indexed": true,
          "internalType": "uint256",
          "name": "id",
          "type": "uint256"
        },
        {
          "indexed": true,
          "internalType": "bytes32",
          "name": "classHash",
          "type": "bytes32"
        },
        {
          "indexed": false,
          "internalType": "address",
          "name": "owner",
          "type": "address"
        },
        {
          "indexed": false,
          "internalType": "string",
          "name": "data",
          "type": "string"
        },
        {
          "indexed": false,
          "internalType": "string",
          "name": "className",
          "type": "string"
        }
      ],
      "name": "InstanceRegistered",
      "type": "event"
    },
    {
      "inputs": [
        {
          "internalType": "bytes32",
          "name": "",
          "type": "bytes32"
        }
      ],
      "name": "classNameRegistry",
      "outputs": [
        {
          "internalType": "string",
          "name": "",
          "type": "string"
        }
      ],
      "stateMutability": "view",
      "type": "function"
    },
    {
      "inputs": [
        {
          "internalType": "bytes32",
          "name": "",
          "type": "bytes32"
        }
      ],
      "name": "classOwners",
      "outputs": [
        {
          "internalType": "address",
          "name": "",
          "type": "address"
        }
      ],
      "stateMutability": "view",
      "type": "function"
    },
    {
      "inputs": [
        {
          "internalType": "uint256",
          "name": "",
          "type": "uint256"
        }
      ],
      "name": "embodiments",
      "outputs": [
        {
          "internalType": "address",
          "name": "owner",
          "type": "address"
        },
        {
          "internalType": "bytes32",
          "name": "classHash",
          "type": "bytes32"
        },
        {
          "internalType": "string",
          "name": "data",
          "type": "string"
        }
      ],
      "stateMutability": "view",
      "type": "function"
    },
    {
      "inputs": [],
      "name": "nextId",
      "outputs": [
        {
          "internalType": "uint256",
          "name": "",
          "type": "uint256"
        }
      ],
      "stateMutability": "view",
      "type": "function"
    },
    {
      "inputs": [
        {
          "internalType": "string",
          "name": "className",
          "type": "string"
        }
      ],
      "name": "registerClass",
      "outputs": [],
      "stateMutability": "nonpayable",
      "type": "function"
    },
    {
      "inputs": [
        {
          "internalType": "string",
          "name": "className",
          "type": "string"
        },
        {
          "internalType": "string",
          "name": "data",
          "type": "string"
        }
      ],
      "name": "registerInstance",
      "outputs": [],
      "stateMutability": "nonpayable",
      "type": "function"
    }
  ],
  "bytecode": "0x6080604052348015600f57600080fd5b506110818061001f6000396000f3fe608060405234801561001057600080fd5b50600436106100625760003560e01c806347f779101461006757806361b8ce8c14610097578063a2be0f9d146100b5578063b1aed4f0146100d1578063c1f8e53814610103578063ebd541b614610133575b600080fd5b610081600480360381019061007c91906106ab565b61014f565b60405161008e9190610719565b60405180910390f35b61009f610182565b6040516100ac919061074d565b60405180910390f35b6100cf60048036038101906100ca91906107cd565b610188565b005b6100eb60048036038101906100e69190610846565b6102f0565b6040516100fa93929190610912565b60405180910390f35b61011d600480360381019061011891906106ab565b6103c2565b60405161012a9190610950565b60405180910390f35b61014d60048036038101906101489190610972565b610462565b005b60016020528060005260406000206000915054906101000a900473ffffffffffffffffffffffffffffffffffffffff1681565b60035481565b60008282906101979190610a0b565b9050600073ffffffffffffffffffffffffffffffffffffffff166001600083815260200190815260200160002060009054906101000a900473ffffffffffffffffffffffffffffffffffffffff1673ffffffffffffffffffffffffffffffffffffffff161461023b576040517f08c379a000000000000000000000000000000000000000000000000000000000815260040161023290610ab6565b60405180910390fd5b336001600083815260200190815260200160002060006101000a81548173ffffffffffffffffffffffffffffffffffffffff021916908373ffffffffffffffffffffffffffffffffffffffff160217905550828260008084815260200190815260200160002091826102ae929190610d0f565b50807f3e0fd1f88ba9b454ec9a02b112550744f1b4d541b645f74b7732eb77ebc5edf23385856040516102e393929190610e1b565b60405180910390a2505050565b60026020528060005260406000206000915090508060000160009054906101000a900473ffffffffffffffffffffffffffffffffffffffff169080600101549080600201805461033f90610b3f565b80601f016020809104026020016040519081016040528092919081815260200182805461036b90610b3f565b80156103b85780601f1061038d576101008083540402835291602001916103b8565b820191906000526020600020905b81548152906001019060200180831161039b57829003601f168201915b5050505050905083565b600060205280600052604060002060009150905080546103e190610b3f565b80601f016020809104026020016040519081016040528092919081815260200182805461040d90610b3f565b801561045a5780601f1061042f5761010080835404028352916020019161045a565b820191906000526020600020905b81548152906001019060200180831161043d57829003601f168201915b505050505081565b60008484906104719190610a0b565b9050600073ffffffffffffffffffffffffffffffffffffffff166001600083815260200190815260200160002060009054906101000a900473ffffffffffffffffffffffffffffffffffffffff1673ffffffffffffffffffffffffffffffffffffffff1603610515576040517f08c379a000000000000000000000000000000000000000000000000000000000815260040161050c90610e99565b60405180910390fd5b60405180606001604052803373ffffffffffffffffffffffffffffffffffffffff16815260200182815260200184848080601f016020809104026020016040519081016040528093929190818152602001838380828437600081840152601f19601f8201169050808301925050505050505081525060026000600354815260200190815260200160002060008201518160000160006101000a81548173ffffffffffffffffffffffffffffffffffffffff021916908373ffffffffffffffffffffffffffffffffffffffff1602179055506020820151816001015560408201518160020190816106059190610eb9565b50905050806003547f8a652330fa0687dd87516e0fca8e21318a3c1ddac65c543bd7971a7fbb69dd3b3386868a8a604051610644959493929190610f8b565b60405180910390a36003600081548092919061065f90611003565b91905055505050505050565b600080fd5b600080fd5b6000819050919050565b61068881610675565b811461069357600080fd5b50565b6000813590506106a58161067f565b92915050565b6000602082840312156106c1576106c061066b565b5b60006106cf84828501610696565b91505092915050565b600073ffffffffffffffffffffffffffffffffffffffff82169050919050565b6000610703826106d8565b9050919050565b610713816106f8565b82525050565b600060208201905061072e600083018461070a565b92915050565b6000819050919050565b61074781610734565b82525050565b6000602082019050610762600083018461073e565b92915050565b600080fd5b600080fd5b600080fd5b60008083601f84011261078d5761078c610768565b5b8235905067ffffffffffffffff8111156107aa576107a961076d565b5b6020830191508360018202830111156107c6576107c5610772565b5b9250929050565b600080602083850312156107e4576107e361066b565b5b600083013567ffffffffffffffff81111561080257610801610670565b5b61080e85828601610777565b92509250509250929050565b61082381610734565b811461082e57600080fd5b50565b6000813590506108408161081a565b92915050565b60006020828403121561085c5761085b61066b565b5b600061086a84828501610831565b91505092915050565b61087c81610675565b82525050565b600081519050919050565b600082825260208201905092915050565b60005b838110156108bc5780820151818401526020810190506108a1565b60008484015250505050565b6000601f19601f8301169050919050565b60006108e482610882565b6108ee818561088d565b93506108fe81856020860161089e565b610907816108c8565b840191505092915050565b6000606082019050610927600083018661070a565b6109346020830185610873565b818103604083015261094681846108d9565b9050949350505050565b6000602082019050818103600083015261096a81846108d9565b905092915050565b6000806000806040858703121561098c5761098b61066b565b5b600085013567ffffffffffffffff8111156109aa576109a9610670565b5b6109b687828801610777565b9450945050602085013567ffffffffffffffff8111156109d9576109d8610670565b5b6109e587828801610777565b925092505092959194509250565b600082905092915050565b600082821b905092915050565b6000610a1783836109f3565b82610a228135610675565b92506020821015610a6257610a5d7fffffffffffffffffffffffffffffffffffffffffffffffffffffffffffffffff836020036008026109fe565b831692505b505092915050565b7f436c617373206578697374730000000000000000000000000000000000000000600082015250565b6000610aa0600c8361088d565b9150610aab82610a6a565b602082019050919050565b60006020820190508181036000830152610acf81610a93565b9050919050565b600082905092915050565b7f4e487b7100000000000000000000000000000000000000000000000000000000600052604160045260246000fd5b7f4e487b7100000000000000000000000000000000000000000000000000000000600052602260045260246000fd5b60006002820490506001821680610b5757607f821691505b602082108103610b6a57610b69610b10565b5b50919050565b60008190508160005260206000209050919050565b60006020601f8301049050919050565b600060088302610bc57fffffffffffffffffffffffffffffffffffffffffffffffffffffffffffffffff826109fe565b610bcf86836109fe565b95508019841693508086168417925050509392505050565b6000819050919050565b6000610c0c610c07610c0284610734565b610be7565b610734565b9050919050565b6000819050919050565b610c2683610bf1565b610c3a610c3282610c13565b848454610b95565b825550505050565b600090565b610c4f610c42565b610c5a818484610c1d565b505050565b5b81811015610c7e57610c73600082610c47565b600181019050610c60565b5050565b601f821115610cc357610c9481610b70565b610c9d84610b85565b81016020851015610cac578190505b610cc0610cb885610b85565b830182610c5f565b50505b505050565b600082821c905092915050565b6000610ce660001984600802610cc8565b1980831691505092915050565b6000610cff8383610cd5565b9150826002028217905092915050565b610d198383610ad6565b67ffffffffffffffff811115610d3257610d31610ae1565b5b610d3c8254610b3f565b610d47828285610c82565b6000601f831160018114610d765760008415610d64578287013590505b610d6e8582610cf3565b865550610dd6565b601f198416610d8486610b70565b60005b82811015610dac57848901358255600182019150602085019450602081019050610d87565b86831015610dc95784890135610dc5601f891682610cd5565b8355505b6001600288020188555050505b50505050505050565b82818337600083830152505050565b6000610dfa838561088d565b9350610e07838584610ddf565b610e10836108c8565b840190509392505050565b6000604082019050610e30600083018661070a565b8181036020830152610e43818486610dee565b9050949350505050565b7f436c617373206e6f7420666f756e640000000000000000000000000000000000600082015250565b6000610e83600f8361088d565b9150610e8e82610e4d565b602082019050919050565b60006020820190508181036000830152610eb281610e76565b9050919050565b610ec282610882565b67ffffffffffffffff811115610edb57610eda610ae1565b5b610ee58254610b3f565b610ef0828285610c82565b600060209050601f831160018114610f235760008415610f11578287015190505b610f1b8582610cf3565b865550610f83565b601f198416610f3186610b70565b60005b82811015610f5957848901518255600182019150602085019450602081019050610f34565b86831015610f765784890151610f72601f891682610cd5565b8355505b6001600288020188555050505b505050505050565b6000606082019050610fa0600083018861070a565b8181036020830152610fb3818688610dee565b90508181036040830152610fc8818486610dee565b90509695505050505050565b7f4e487b7100000000000000000000000000000000000000000000000000000000600052601160045260246000fd5b600061100e82610734565b91507fffffffffffffffffffffffffffffffffffffffffffffffffffffffffffffffff82036110405761103f610fd4565b5b60018201905091905056fea264697066735822122075d5d9b167bdafb38a066075b901676b2f5421ac9a434c6bcce14d504e76361564736f6c634300081c0033",
  "linkReferences": {},
  "deployedLinkReferences": {}
}