{
  "_format": "hh-sol-artifact-1",
  "contractName": "EntityRegistry",
  "sourceName": "contracts/EntityRegistry.sol",
  "abi": [
    {
      "inputs": [
        {
          "internalType": "address",
          "name": "registryAddress",
          "type": "address"
        }
      ],
      "stateMutability": "nonpayable",
      "type": "constructor"
    },
    {
      "anonymous": false,
      "inputs": [
        {
          "indexed": true,
          "internalType": "uint256",
          "name": "entityId",
          "type": "uint256"
        },
        {
          "indexed": true,
          "internalType": "bytes32",
          "name": "classHash",
          "type": "bytes32"
        },
        {
          "indexed": false,
          "internalType": "address",
          "name": "owner",
          "type": "address"
        },
        {
          "indexed": false,
          "internalType": "string",
          "name": "data",
          "type": "string"
        }
      ],
      "name": "EntityRegistered",
      "type": "event"
    },
    {
      "inputs": [],
      "name": "embodimentRegistry",
      "outputs": [
        {
          "internalType": "contract IEmbodimentRegistry",
          "name": "",
          "type": "address"
        }
      ],
      "stateMutability": "view",
      "type": "function"
    },
    {
      "inputs": [
        {
          "internalType": "uint256",
          "name": "",
          "type": "uint256"
        }
      ],
      "name": "entities",
      "outputs": [
        {
          "internalType": "address",
          "name": "owner",
          "type": "address"
        },
        {
          "internalType": "bytes32",
          "name": "classHash",
          "type": "bytes32"
        },
        {
          "internalType": "string",
          "name": "data",
          "type": "string"
        }
      ],
      "stateMutability": "view",
      "type": "function"
    },
    {
      "inputs": [],
      "name": "nextEntityId",
      "outputs": [
        {
          "internalType": "uint256",
          "name": "",
          "type": "uint256"
        }
      ],
      "stateMutability": "view",
      "type": "function"
    },
    {
      "inputs": [
        {
          "internalType": "bytes32",
          "name": "classHash",
          "type": "bytes32"
        },
        {
          "internalType": "string",
          "name": "data",
          "type": "string"
        }
      ],
      "name": "registerEntity",
      "outputs": [],
      "stateMutability": "nonpayable",
      "type": "function"
    }
  ],
  "bytecode": "0x60a060405234801561001057600080fd5b50604051610d73380380610d73833981810160405281019061003291906100cf565b8073ffffffffffffffffffffffffffffffffffffffff1660808173ffffffffffffffffffffffffffffffffffffffff1681525050506100fc565b600080fd5b600073ffffffffffffffffffffffffffffffffffffffff82169050919050565b600061009c82610071565b9050919050565b6100ac81610091565b81146100b757600080fd5b50565b6000815190506100c9816100a3565b92915050565b6000602082840312156100e5576100e461006c565b5b60006100f3848285016100ba565b91505092915050565b608051610c5661011d6000396000818160dd01526101f10152610c566000f3fe608060405234801561001057600080fd5b506004361061004c5760003560e01c80630c1ab3c9146100515780636331883b1461006f5780639a910a00146100a1578063c2177dca146100bf575b600080fd5b6100596100db565b60405161006691906104ad565b60405180910390f35b61008960048036038101906100849190610508565b6100ff565b604051610098939291906105ff565b60405180910390f35b6100a96101d1565b6040516100b6919061064c565b60405180910390f35b6100d960048036038101906100d491906106f8565b6101d7565b005b7f000000000000000000000000000000000000000000000000000000000000000081565b60006020528060005260406000206000915090508060000160009054906101000a900473ffffffffffffffffffffffffffffffffffffffff169080600101549080600201805461014e90610787565b80601f016020809104026020016040519081016040528092919081815260200182805461017a90610787565b80156101c75780601f1061019c576101008083540402835291602001916101c7565b820191906000526020600020905b8154815290600101906020018083116101aa57829003601f168201915b5050505050905083565b60015481565b600073ffffffffffffffffffffffffffffffffffffffff167f000000000000000000000000000000000000000000000000000000000000000073ffffffffffffffffffffffffffffffffffffffff166347f77910856040518263ffffffff1660e01b815260040161024891906107b8565b602060405180830381865afa158015610265573d6000803e3d6000fd5b505050506040513d601f19601f8201168201806040525081019061028991906107ff565b73ffffffffffffffffffffffffffffffffffffffff16036102df576040517f08c379a00000000000000000000000000000000000000000000000000000000081526004016102d690610878565b60405180910390fd5b60405180606001604052803373ffffffffffffffffffffffffffffffffffffffff16815260200184815260200183838080601f016020809104026020016040519081016040528093929190818152602001838380828437600081840152601f19601f82011690508083019250505050505050815250600080600154815260200190815260200160002060008201518160000160006101000a81548173ffffffffffffffffffffffffffffffffffffffff021916908373ffffffffffffffffffffffffffffffffffffffff1602179055506020820151816001015560408201518160020190816103ce9190610a69565b50905050826001547f8358105f7694e962b49b1a337e552e1c23856e5e33cd0b83d1c48927a19d6da433858560405161040993929190610b77565b60405180910390a36001600081548092919061042490610bd8565b9190505550505050565b600073ffffffffffffffffffffffffffffffffffffffff82169050919050565b6000819050919050565b600061047361046e6104698461042e565b61044e565b61042e565b9050919050565b600061048582610458565b9050919050565b60006104978261047a565b9050919050565b6104a78161048c565b82525050565b60006020820190506104c2600083018461049e565b92915050565b600080fd5b600080fd5b6000819050919050565b6104e5816104d2565b81146104f057600080fd5b50565b600081359050610502816104dc565b92915050565b60006020828403121561051e5761051d6104c8565b5b600061052c848285016104f3565b91505092915050565b60006105408261042e565b9050919050565b61055081610535565b82525050565b6000819050919050565b61056981610556565b82525050565b600081519050919050565b600082825260208201905092915050565b60005b838110156105a957808201518184015260208101905061058e565b60008484015250505050565b6000601f19601f8301169050919050565b60006105d18261056f565b6105db818561057a565b93506105eb81856020860161058b565b6105f4816105b5565b840191505092915050565b60006060820190506106146000830186610547565b6106216020830185610560565b818103604083015261063381846105c6565b9050949350505050565b610646816104d2565b82525050565b6000602082019050610661600083018461063d565b92915050565b61067081610556565b811461067b57600080fd5b50565b60008135905061068d81610667565b92915050565b600080fd5b600080fd5b600080fd5b60008083601f8401126106b8576106b7610693565b5b8235905067ffffffffffffffff8111156106d5576106d4610698565b5b6020830191508360018202830111156106f1576106f061069d565b5b9250929050565b600080600060408486031215610711576107106104c8565b5b600061071f8682870161067e565b935050602084013567ffffffffffffffff8111156107405761073f6104cd565b5b61074c868287016106a2565b92509250509250925092565b7f4e487b7100000000000000000000000000000000000000000000000000000000600052602260045260246000fd5b6000600282049050600182168061079f57607f821691505b6020821081036107b2576107b1610758565b5b50919050565b60006020820190506107cd6000830184610560565b92915050565b6107dc81610535565b81146107e757600080fd5b50565b6000815190506107f9816107d3565b92915050565b600060208284031215610815576108146104c8565b5b6000610823848285016107ea565b91505092915050565b7f436c61737320646f6573206e6f74206578697374000000000000000000000000600082015250565b600061086260148361057a565b915061086d8261082c565b602082019050919050565b6000602082019050818103600083015261089181610855565b9050919050565b7f4e487b7100000000000000000000000000000000000000000000000000000000600052604160045260246000fd5b60008190508160005260206000209050919050565b60006020601f8301049050919050565b600082821b905092915050565b6000600883026109297fffffffffffffffffffffffffffffffffffffffffffffffffffffffffffffffff826108ec565b61093386836108ec565b95508019841693508086168417925050509392505050565b600061096661096161095c846104d2565b61044e565b6104d2565b9050919050565b6000819050919050565b6109808361094b565b61099461098c8261096d565b8484546108f9565b825550505050565b600090565b6109a961099c565b6109b4818484610977565b505050565b5b818110156109d8576109cd6000826109a1565b6001810190506109ba565b5050565b601f821115610a1d576109ee816108c7565b6109f7846108dc565b81016020851015610a06578190505b610a1a610a12856108dc565b8301826109b9565b50505b505050565b600082821c905092915050565b6000610a4060001984600802610a22565b1980831691505092915050565b6000610a598383610a2f565b9150826002028217905092915050565b610a728261056f565b67ffffffffffffffff811115610a8b57610a8a610898565b5b610a958254610787565b610aa08282856109dc565b600060209050601f831160018114610ad35760008415610ac1578287015190505b610acb8582610a4d565b865550610b33565b601f198416610ae1866108c7565b60005b82811015610b0957848901518255600182019150602085019450602081019050610ae4565b86831015610b265784890151610b22601f891682610a2f565b8355505b6001600288020188555050505b505050505050565b82818337600083830152505050565b6000610b56838561057a565b9350610b63838584610b3b565b610b6c836105b5565b840190509392505050565b6000604082019050610b8c6000830186610547565b8181036020830152610b9f818486610b4a565b9050949350505050565b7f4e487b7100000000000000000000000000000000000000000000000000000000600052601160045260246000fd5b6000610be3826104d2565b91507fffffffffffffffffffffffffffffffffffffffffffffffffffffffffffffffff8203610c1557610c14610ba9565b5b60018201905091905056fea2646970667358221220e1cc4323b58065d408f3b4895554c053e3c1949dadab0c4972549cc516b808ab64736f6c634300081c0033",
  "linkReferences": {},
  "deployedLinkReferences": {}
}