{
  "_format": "hh-sol-artifact-1",
  "contractName": "EntityRegistry",
  "sourceName": "contracts/EntityRegistry.sol",
  "abi": [
    {
      "inputs": [
        {
          "internalType": "address",
          "name": "registryAddress",
          "type": "address"
        }
      ],
      "stateMutability": "nonpayable",
      "type": "constructor"
    },
    {
      "anonymous": false,
      "inputs": [
        {
          "indexed": true,
          "internalType": "uint256",
          "name": "entityId",
          "type": "uint256"
        },
        {
          "indexed": true,
          "internalType": "bytes32",
          "name": "classHash",
          "type": "bytes32"
        },
        {
          "indexed": false,
          "internalType": "address",
          "name": "owner",
          "type": "address"
        },
        {
          "indexed": false,
          "internalType": "string",
          "name": "data",
          "type": "string"
        }
      ],
      "name": "EntityRegistered",
      "type": "event"
    },
    {
      "inputs": [],
      "name": "embodimentRegistry",
      "outputs": [
        {
          "internalType": "contract IEmbodimentRegistry",
          "name": "",
          "type": "address"
        }
      ],
      "stateMutability": "view",
      "type": "function"
    },
    {
      "inputs": [
        {
          "internalType": "uint256",
          "name": "",
          "type": "uint256"
        }
      ],
      "name": "entities",
      "outputs": [
        {
          "internalType": "address",
          "name": "owner",
          "type": "address"
        },
        {
          "internalType": "bytes32",
          "name": "classHash",
          "type": "bytes32"
        },
        {
          "internalType": "string",
          "name": "data",
          "type": "string"
        }
      ],
      "stateMutability": "view",
      "type": "function"
    },
    {
      "inputs": [],
      "name": "nextEntityId",
      "outputs": [
        {
          "internalType": "uint256",
          "name": "",
          "type": "uint256"
        }
      ],
      "stateMutability": "view",
      "type": "function"
    },
    {
      "inputs": [
        {
          "internalType": "bytes32",
          "name": "classHash",
          "type": "bytes32"
        },
        {
          "internalType": "string",
          "name": "data",
          "type": "string"
        }
      ],
      "name": "registerEntity",
      "outputs": [],
      "stateMutability": "nonpayable",
      "type": "function"
    },
    {
      "inputs": [
        {
          "internalType": "string",
          "name": "className",
          "type": "string"
        },
        {
          "internalType": "string",
          "name": "data",
          "type": "string"
        }
      ],
      "name": "registerEntityWithClassName",
      "outputs": [],
      "stateMutability": "nonpayable",
      "type": "function"
    }
  ],
  "bytecode": "0x60a060405234801561001057600080fd5b50604051611189380380611189833981810160405281019061003291906100cf565b8073ffffffffffffffffffffffffffffffffffffffff1660808173ffffffffffffffffffffffffffffffffffffffff1681525050506100fc565b600080fd5b600073ffffffffffffffffffffffffffffffffffffffff82169050919050565b600061009c82610071565b9050919050565b6100ac81610091565b81146100b757600080fd5b50565b6000815190506100c9816100a3565b92915050565b6000602082840312156100e5576100e461006c565b5b60006100f3848285016100ba565b91505092915050565b60805161105d61012c600039600081816101040152818161012a015281816101e00152610511015261105d6000f3fe608060405234801561001057600080fd5b50600436106100575760003560e01c80630c1ab3c91461005c578063540660b51461007a5780636331883b146100965780639a910a00146100c8578063c2177dca146100e6575b600080fd5b610064610102565b60405161007191906107cd565b60405180910390f35b610094600480360381019061008f9190610857565b610126565b005b6100b060048036038101906100ab919061090e565b61041f565b6040516100bf93929190610a05565b60405180910390f35b6100d06104f1565b6040516100dd9190610a52565b60405180910390f35b61010060048036038101906100fb9190610a99565b6104f7565b005b7f000000000000000000000000000000000000000000000000000000000000000081565b60007f000000000000000000000000000000000000000000000000000000000000000073ffffffffffffffffffffffffffffffffffffffff16633d2688bf86866040518363ffffffff1660e01b8152600401610183929190610b35565b602060405180830381865afa1580156101a0573d6000803e3d6000fd5b505050506040513d601f19601f820116820180604052508101906101c49190610b6e565b9050600073ffffffffffffffffffffffffffffffffffffffff167f000000000000000000000000000000000000000000000000000000000000000073ffffffffffffffffffffffffffffffffffffffff166347f77910836040518263ffffffff1660e01b81526004016102379190610b9b565b602060405180830381865afa158015610254573d6000803e3d6000fd5b505050506040513d601f19601f820116820180604052508101906102789190610be2565b73ffffffffffffffffffffffffffffffffffffffff16036102ce576040517f08c379a00000000000000000000000000000000000000000000000000000000081526004016102c590610c5b565b60405180910390fd5b60405180606001604052803373ffffffffffffffffffffffffffffffffffffffff16815260200182815260200184848080601f016020809104026020016040519081016040528093929190818152602001838380828437600081840152601f19601f82011690508083019250505050505050815250600080600154815260200190815260200160002060008201518160000160006101000a81548173ffffffffffffffffffffffffffffffffffffffff021916908373ffffffffffffffffffffffffffffffffffffffff1602179055506020820151816001015560408201518160020190816103bd9190610eac565b50905050806001547f8358105f7694e962b49b1a337e552e1c23856e5e33cd0b83d1c48927a19d6da43386866040516103f893929190610f7e565b60405180910390a36001600081548092919061041390610fdf565b91905055505050505050565b60006020528060005260406000206000915090508060000160009054906101000a900473ffffffffffffffffffffffffffffffffffffffff169080600101549080600201805461046e90610cd9565b80601f016020809104026020016040519081016040528092919081815260200182805461049a90610cd9565b80156104e75780601f106104bc576101008083540402835291602001916104e7565b820191906000526020600020905b8154815290600101906020018083116104ca57829003601f168201915b5050505050905083565b60015481565b600073ffffffffffffffffffffffffffffffffffffffff167f000000000000000000000000000000000000000000000000000000000000000073ffffffffffffffffffffffffffffffffffffffff166347f77910856040518263ffffffff1660e01b81526004016105689190610b9b565b602060405180830381865afa158015610585573d6000803e3d6000fd5b505050506040513d601f19601f820116820180604052508101906105a99190610be2565b73ffffffffffffffffffffffffffffffffffffffff16036105ff576040517f08c379a00000000000000000000000000000000000000000000000000000000081526004016105f690610c5b565b60405180910390fd5b60405180606001604052803373ffffffffffffffffffffffffffffffffffffffff16815260200184815260200183838080601f016020809104026020016040519081016040528093929190818152602001838380828437600081840152601f19601f82011690508083019250505050505050815250600080600154815260200190815260200160002060008201518160000160006101000a81548173ffffffffffffffffffffffffffffffffffffffff021916908373ffffffffffffffffffffffffffffffffffffffff1602179055506020820151816001015560408201518160020190816106ee9190610eac565b50905050826001547f8358105f7694e962b49b1a337e552e1c23856e5e33cd0b83d1c48927a19d6da433858560405161072993929190610f7e565b60405180910390a36001600081548092919061074490610fdf565b9190505550505050565b600073ffffffffffffffffffffffffffffffffffffffff82169050919050565b6000819050919050565b600061079361078e6107898461074e565b61076e565b61074e565b9050919050565b60006107a582610778565b9050919050565b60006107b78261079a565b9050919050565b6107c7816107ac565b82525050565b60006020820190506107e260008301846107be565b92915050565b600080fd5b600080fd5b600080fd5b600080fd5b600080fd5b60008083601f840112610817576108166107f2565b5b8235905067ffffffffffffffff811115610834576108336107f7565b5b6020830191508360018202830111156108505761084f6107fc565b5b9250929050565b60008060008060408587031215610871576108706107e8565b5b600085013567ffffffffffffffff81111561088f5761088e6107ed565b5b61089b87828801610801565b9450945050602085013567ffffffffffffffff8111156108be576108bd6107ed565b5b6108ca87828801610801565b925092505092959194509250565b6000819050919050565b6108eb816108d8565b81146108f657600080fd5b50565b600081359050610908816108e2565b92915050565b600060208284031215610924576109236107e8565b5b6000610932848285016108f9565b91505092915050565b60006109468261074e565b9050919050565b6109568161093b565b82525050565b6000819050919050565b61096f8161095c565b82525050565b600081519050919050565b600082825260208201905092915050565b60005b838110156109af578082015181840152602081019050610994565b60008484015250505050565b6000601f19601f8301169050919050565b60006109d782610975565b6109e18185610980565b93506109f1818560208601610991565b6109fa816109bb565b840191505092915050565b6000606082019050610a1a600083018661094d565b610a276020830185610966565b8181036040830152610a3981846109cc565b9050949350505050565b610a4c816108d8565b82525050565b6000602082019050610a676000830184610a43565b92915050565b610a768161095c565b8114610a8157600080fd5b50565b600081359050610a9381610a6d565b92915050565b600080600060408486031215610ab257610ab16107e8565b5b6000610ac086828701610a84565b935050602084013567ffffffffffffffff811115610ae157610ae06107ed565b5b610aed86828701610801565b92509250509250925092565b82818337600083830152505050565b6000610b148385610980565b9350610b21838584610af9565b610b2a836109bb565b840190509392505050565b60006020820190508181036000830152610b50818486610b08565b90509392505050565b600081519050610b6881610a6d565b92915050565b600060208284031215610b8457610b836107e8565b5b6000610b9284828501610b59565b91505092915050565b6000602082019050610bb06000830184610966565b92915050565b610bbf8161093b565b8114610bca57600080fd5b50565b600081519050610bdc81610bb6565b92915050565b600060208284031215610bf857610bf76107e8565b5b6000610c0684828501610bcd565b91505092915050565b7f436c61737320646f6573206e6f74206578697374000000000000000000000000600082015250565b6000610c45601483610980565b9150610c5082610c0f565b602082019050919050565b60006020820190508181036000830152610c7481610c38565b9050919050565b7f4e487b7100000000000000000000000000000000000000000000000000000000600052604160045260246000fd5b7f4e487b7100000000000000000000000000000000000000000000000000000000600052602260045260246000fd5b60006002820490506001821680610cf157607f821691505b602082108103610d0457610d03610caa565b5b50919050565b60008190508160005260206000209050919050565b60006020601f8301049050919050565b600082821b905092915050565b600060088302610d6c7fffffffffffffffffffffffffffffffffffffffffffffffffffffffffffffffff82610d2f565b610d768683610d2f565b95508019841693508086168417925050509392505050565b6000610da9610da4610d9f846108d8565b61076e565b6108d8565b9050919050565b6000819050919050565b610dc383610d8e565b610dd7610dcf82610db0565b848454610d3c565b825550505050565b600090565b610dec610ddf565b610df7818484610dba565b505050565b5b81811015610e1b57610e10600082610de4565b600181019050610dfd565b5050565b601f821115610e6057610e3181610d0a565b610e3a84610d1f565b81016020851015610e49578190505b610e5d610e5585610d1f565b830182610dfc565b50505b505050565b600082821c905092915050565b6000610e8360001984600802610e65565b1980831691505092915050565b6000610e9c8383610e72565b9150826002028217905092915050565b610eb582610975565b67ffffffffffffffff811115610ece57610ecd610c7b565b5b610ed88254610cd9565b610ee3828285610e1f565b600060209050601f831160018114610f165760008415610f04578287015190505b610f0e8582610e90565b865550610f76565b601f198416610f2486610d0a565b60005b82811015610f4c57848901518255600182019150602085019450602081019050610f27565b86831015610f695784890151610f65601f891682610e72565b8355505b6001600288020188555050505b505050505050565b6000604082019050610f93600083018661094d565b8181036020830152610fa6818486610b08565b9050949350505050565b7f4e487b7100000000000000000000000000000000000000000000000000000000600052601160045260246000fd5b6000610fea826108d8565b91507fffffffffffffffffffffffffffffffffffffffffffffffffffffffffffffffff820361101c5761101b610fb0565b5b60018201905091905056fea2646970667358221220772c0c559aa28bc1759920f6762b757474315ba98bdb8fdaf6b18c498311db1964736f6c634300081c0033",
  "linkReferences": {},
  "deployedLinkReferences": {}
}