{
  "contracts/EmbodimentRegistry.sol": {
    "EmbodimentRegistry": {
      "abi": [
        {
          "anonymous": false,
          "inputs": [
            {
              "indexed": true,
              "internalType": "bytes32",
              "name": "classHash",
              "type": "bytes32"
            },
            {
              "indexed": false,
              "internalType": "address",
              "name": "owner",
              "type": "address"
            },
            {
              "indexed": false,
              "internalType": "string",
              "name": "className",
              "type": "string"
            }
          ],
          "name": "ClassRegistered",
          "type": "event"
        },
        {
          "anonymous": false,
          "inputs": [
            {
              "indexed": true,
              "internalType": "uint256",
              "name": "id",
              "type": "uint256"
            },
            {
              "indexed": true,
              "internalType": "bytes32",
              "name": "classHash",
              "type": "bytes32"
            },
            {
              "indexed": false,
              "internalType": "address",
              "name": "owner",
              "type": "address"
            },
            {
              "indexed": false,
              "internalType": "string",
              "name": "data",
              "type": "string"
            },
            {
              "indexed": false,
              "internalType": "string",
              "name": "className",
              "type": "string"
            }
          ],
          "name": "InstanceRegistered",
          "type": "event"
        },
        {
          "inputs": [
            {
              "internalType": "bytes32",
              "name": "",
              "type": "bytes32"
            }
          ],
          "name": "classNameRegistry",
          "outputs": [
            {
              "internalType": "string",
              "name": "",
              "type": "string"
            }
          ],
          "stateMutability": "view",
          "type": "function"
        },
        {
          "inputs": [
            {
              "internalType": "bytes32",
              "name": "",
              "type": "bytes32"
            }
          ],
          "name": "classOwners",
          "outputs": [
            {
              "internalType": "address",
              "name": "",
              "type": "address"
            }
          ],
          "stateMutability": "view",
          "type": "function"
        },
        {
          "inputs": [
            {
              "internalType": "uint256",
              "name": "",
              "type": "uint256"
            }
          ],
          "name": "embodiments",
          "outputs": [
            {
              "internalType": "address",
              "name": "owner",
              "type": "address"
            },
            {
              "internalType": "bytes32",
              "name": "classHash",
              "type": "bytes32"
            },
            {
              "internalType": "string",
              "name": "data",
              "type": "string"
            }
          ],
          "stateMutability": "view",
          "type": "function"
        },
        {
          "inputs": [],
          "name": "nextId",
          "outputs": [
            {
              "internalType": "uint256",
              "name": "",
              "type": "uint256"
            }
          ],
          "stateMutability": "view",
          "type": "function"
        },
        {
          "inputs": [
            {
              "internalType": "string",
              "name": "className",
              "type": "string"
            }
          ],
          "name": "registerClass",
          "outputs": [],
          "stateMutability": "nonpayable",
          "type": "function"
        },
        {
          "inputs": [
            {
              "internalType": "string",
              "name": "className",
              "type": "string"
            },
            {
              "internalType": "string",
              "name": "data",
              "type": "string"
            }
          ],
          "name": "registerInstance",
          "outputs": [],
          "stateMutability": "nonpayable",
          "type": "function"
        }
      ],
      "evm": {
        "bytecode": {
          "linkReferences": {},
          "object": "6080604052348015600f57600080fd5b506110818061001f6000396000f3fe608060405234801561001057600080fd5b50600436106100625760003560e01c806347f779101461006757806361b8ce8c14610097578063a2be0f9d146100b5578063b1aed4f0146100d1578063c1f8e53814610103578063ebd541b614610133575b600080fd5b610081600480360381019061007c91906106ab565b61014f565b60405161008e9190610719565b60405180910390f35b61009f610182565b6040516100ac919061074d565b60405180910390f35b6100cf60048036038101906100ca91906107cd565b610188565b005b6100eb60048036038101906100e69190610846565b6102f0565b6040516100fa93929190610912565b60405180910390f35b61011d600480360381019061011891906106ab565b6103c2565b60405161012a9190610950565b60405180910390f35b61014d60048036038101906101489190610972565b610462565b005b60016020528060005260406000206000915054906101000a900473ffffffffffffffffffffffffffffffffffffffff1681565b60035481565b60008282906101979190610a0b565b9050600073ffffffffffffffffffffffffffffffffffffffff166001600083815260200190815260200160002060009054906101000a900473ffffffffffffffffffffffffffffffffffffffff1673ffffffffffffffffffffffffffffffffffffffff161461023b576040517f08c379a000000000000000000000000000000000000000000000000000000000815260040161023290610ab6565b60405180910390fd5b336001600083815260200190815260200160002060006101000a81548173ffffffffffffffffffffffffffffffffffffffff021916908373ffffffffffffffffffffffffffffffffffffffff160217905550828260008084815260200190815260200160002091826102ae929190610d0f565b50807f3e0fd1f88ba9b454ec9a02b112550744f1b4d541b645f74b7732eb77ebc5edf23385856040516102e393929190610e1b565b60405180910390a2505050565b60026020528060005260406000206000915090508060000160009054906101000a900473ffffffffffffffffffffffffffffffffffffffff169080600101549080600201805461033f90610b3f565b80601f016020809104026020016040519081016040528092919081815260200182805461036b90610b3f565b80156103b85780601f1061038d576101008083540402835291602001916103b8565b820191906000526020600020905b81548152906001019060200180831161039b57829003601f168201915b5050505050905083565b600060205280600052604060002060009150905080546103e190610b3f565b80601f016020809104026020016040519081016040528092919081815260200182805461040d90610b3f565b801561045a5780601f1061042f5761010080835404028352916020019161045a565b820191906000526020600020905b81548152906001019060200180831161043d57829003601f168201915b505050505081565b60008484906104719190610a0b565b9050600073ffffffffffffffffffffffffffffffffffffffff166001600083815260200190815260200160002060009054906101000a900473ffffffffffffffffffffffffffffffffffffffff1673ffffffffffffffffffffffffffffffffffffffff1603610515576040517f08c379a000000000000000000000000000000000000000000000000000000000815260040161050c90610e99565b60405180910390fd5b60405180606001604052803373ffffffffffffffffffffffffffffffffffffffff16815260200182815260200184848080601f016020809104026020016040519081016040528093929190818152602001838380828437600081840152601f19601f8201169050808301925050505050505081525060026000600354815260200190815260200160002060008201518160000160006101000a81548173ffffffffffffffffffffffffffffffffffffffff021916908373ffffffffffffffffffffffffffffffffffffffff1602179055506020820151816001015560408201518160020190816106059190610eb9565b50905050806003547f8a652330fa0687dd87516e0fca8e21318a3c1ddac65c543bd7971a7fbb69dd3b3386868a8a604051610644959493929190610f8b565b60405180910390a36003600081548092919061065f90611003565b91905055505050505050565b600080fd5b600080fd5b6000819050919050565b61068881610675565b811461069357600080fd5b50565b6000813590506106a58161067f565b92915050565b6000602082840312156106c1576106c061066b565b5b60006106cf84828501610696565b91505092915050565b600073ffffffffffffffffffffffffffffffffffffffff82169050919050565b6000610703826106d8565b9050919050565b610713816106f8565b82525050565b600060208201905061072e600083018461070a565b92915050565b6000819050919050565b61074781610734565b82525050565b6000602082019050610762600083018461073e565b92915050565b600080fd5b600080fd5b600080fd5b60008083601f84011261078d5761078c610768565b5b8235905067ffffffffffffffff8111156107aa576107a961076d565b5b6020830191508360018202830111156107c6576107c5610772565b5b9250929050565b600080602083850312156107e4576107e361066b565b5b600083013567ffffffffffffffff81111561080257610801610670565b5b61080e85828601610777565b92509250509250929050565b61082381610734565b811461082e57600080fd5b50565b6000813590506108408161081a565b92915050565b60006020828403121561085c5761085b61066b565b5b600061086a84828501610831565b91505092915050565b61087c81610675565b82525050565b600081519050919050565b600082825260208201905092915050565b60005b838110156108bc5780820151818401526020810190506108a1565b60008484015250505050565b6000601f19601f8301169050919050565b60006108e482610882565b6108ee818561088d565b93506108fe81856020860161089e565b610907816108c8565b840191505092915050565b6000606082019050610927600083018661070a565b6109346020830185610873565b818103604083015261094681846108d9565b9050949350505050565b6000602082019050818103600083015261096a81846108d9565b905092915050565b6000806000806040858703121561098c5761098b61066b565b5b600085013567ffffffffffffffff8111156109aa576109a9610670565b5b6109b687828801610777565b9450945050602085013567ffffffffffffffff8111156109d9576109d8610670565b5b6109e587828801610777565b925092505092959194509250565b600082905092915050565b600082821b905092915050565b6000610a1783836109f3565b82610a228135610675565b92506020821015610a6257610a5d7fffffffffffffffffffffffffffffffffffffffffffffffffffffffffffffffff836020036008026109fe565b831692505b505092915050565b7f436c617373206578697374730000000000000000000000000000000000000000600082015250565b6000610aa0600c8361088d565b9150610aab82610a6a565b602082019050919050565b60006020820190508181036000830152610acf81610a93565b9050919050565b600082905092915050565b7f4e487b7100000000000000000000000000000000000000000000000000000000600052604160045260246000fd5b7f4e487b7100000000000000000000000000000000000000000000000000000000600052602260045260246000fd5b60006002820490506001821680610b5757607f821691505b602082108103610b6a57610b69610b10565b5b50919050565b60008190508160005260206000209050919050565b60006020601f8301049050919050565b600060088302610bc57fffffffffffffffffffffffffffffffffffffffffffffffffffffffffffffffff826109fe565b610bcf86836109fe565b95508019841693508086168417925050509392505050565b6000819050919050565b6000610c0c610c07610c0284610734565b610be7565b610734565b9050919050565b6000819050919050565b610c2683610bf1565b610c3a610c3282610c13565b848454610b95565b825550505050565b600090565b610c4f610c42565b610c5a818484610c1d565b505050565b5b81811015610c7e57610c73600082610c47565b600181019050610c60565b5050565b601f821115610cc357610c9481610b70565b610c9d84610b85565b81016020851015610cac578190505b610cc0610cb885610b85565b830182610c5f565b50505b505050565b600082821c905092915050565b6000610ce660001984600802610cc8565b1980831691505092915050565b6000610cff8383610cd5565b9150826002028217905092915050565b610d198383610ad6565b67ffffffffffffffff811115610d3257610d31610ae1565b5b610d3c8254610b3f565b610d47828285610c82565b6000601f831160018114610d765760008415610d64578287013590505b610d6e8582610cf3565b865550610dd6565b601f198416610d8486610b70565b60005b82811015610dac57848901358255600182019150602085019450602081019050610d87565b86831015610dc95784890135610dc5601f891682610cd5565b8355505b6001600288020188555050505b50505050505050565b82818337600083830152505050565b6000610dfa838561088d565b9350610e07838584610ddf565b610e10836108c8565b840190509392505050565b6000604082019050610e30600083018661070a565b8181036020830152610e43818486610dee565b9050949350505050565b7f436c617373206e6f7420666f756e640000000000000000000000000000000000600082015250565b6000610e83600f8361088d565b9150610e8e82610e4d565b602082019050919050565b60006020820190508181036000830152610eb281610e76565b9050919050565b610ec282610882565b67ffffffffffffffff811115610edb57610eda610ae1565b5b610ee58254610b3f565b610ef0828285610c82565b600060209050601f831160018114610f235760008415610f11578287015190505b610f1b8582610cf3565b865550610f83565b601f198416610f3186610b70565b60005b82811015610f5957848901518255600182019150602085019450602081019050610f34565b86831015610f765784890151610f72601f891682610cd5565b8355505b6001600288020188555050505b505050505050565b6000606082019050610fa0600083018861070a565b8181036020830152610fb3818688610dee565b90508181036040830152610fc8818486610dee565b90509695505050505050565b7f4e487b7100000000000000000000000000000000000000000000000000000000600052601160045260246000fd5b600061100e82610734565b91507fffffffffffffffffffffffffffffffffffffffffffffffffffffffffffffffff82036110405761103f610fd4565b5b60018201905091905056fea264697066735822122075d5d9b167bdafb38a066075b901676b2f5421ac9a434c6bcce14d504e76361564736f6c634300081c0033",
          "opcodes": "PUSH1 0x80 PUSH1 0x40 MSTORE CALLVALUE DUP1 ISZERO PUSH1 0xF JUMPI PUSH1 0x0 DUP1 REVERT JUMPDEST POP PUSH2 0x1081 DUP1 PUSH2 0x1F PUSH1 0x0 CODECOPY PUSH1 0x0 RETURN INVALID PUSH1 0x80 PUSH1 0x40 MSTORE CALLVALUE DUP1 ISZERO PUSH2 0x10 JUMPI PUSH1 0x0 DUP1 REVERT JUMPDEST POP PUSH1 0x4 CALLDATASIZE LT PUSH2 0x62 JUMPI PUSH1 0x0 CALLDATALOAD PUSH1 0xE0 SHR DUP1 PUSH4 0x47F77910 EQ PUSH2 0x67 JUMPI DUP1 PUSH4 0x61B8CE8C EQ PUSH2 0x97 JUMPI DUP1 PUSH4 0xA2BE0F9D EQ PUSH2 0xB5 JUMPI DUP1 PUSH4 0xB1AED4F0 EQ PUSH2 0xD1 JUMPI DUP1 PUSH4 0xC1F8E538 EQ PUSH2 0x103 JUMPI DUP1 PUSH4 0xEBD541B6 EQ PUSH2 0x133 JUMPI JUMPDEST PUSH1 0x0 DUP1 REVERT JUMPDEST PUSH2 0x81 PUSH1 0x4 DUP1 CALLDATASIZE SUB DUP2 ADD SWAP1 PUSH2 0x7C SWAP2 SWAP1 PUSH2 0x6AB JUMP JUMPDEST PUSH2 0x14F JUMP JUMPDEST PUSH1 0x40 MLOAD PUSH2 0x8E SWAP2 SWAP1 PUSH2 0x719 JUMP JUMPDEST PUSH1 0x40 MLOAD DUP1 SWAP2 SUB SWAP1 RETURN JUMPDEST PUSH2 0x9F PUSH2 0x182 JUMP JUMPDEST PUSH1 0x40 MLOAD PUSH2 0xAC SWAP2 SWAP1 PUSH2 0x74D JUMP JUMPDEST PUSH1 0x40 MLOAD DUP1 SWAP2 SUB SWAP1 RETURN JUMPDEST PUSH2 0xCF PUSH1 0x4 DUP1 CALLDATASIZE SUB DUP2 ADD SWAP1 PUSH2 0xCA SWAP2 SWAP1 PUSH2 0x7CD JUMP JUMPDEST PUSH2 0x188 JUMP JUMPDEST STOP JUMPDEST PUSH2 0xEB PUSH1 0x4 DUP1 CALLDATASIZE SUB DUP2 ADD SWAP1 PUSH2 0xE6 SWAP2 SWAP1 PUSH2 0x846 JUMP JUMPDEST PUSH2 0x2F0 JUMP JUMPDEST PUSH1 0x40 MLOAD PUSH2 0xFA SWAP4 SWAP3 SWAP2 SWAP1 PUSH2 0x912 JUMP JUMPDEST PUSH1 0x40 MLOAD DUP1 SWAP2 SUB SWAP1 RETURN JUMPDEST PUSH2 0x11D PUSH1 0x4 DUP1 CALLDATASIZE SUB DUP2 ADD SWAP1 PUSH2 0x118 SWAP2 SWAP1 PUSH2 0x6AB JUMP JUMPDEST PUSH2 0x3C2 JUMP JUMPDEST PUSH1 0x40 MLOAD PUSH2 0x12A SWAP2 SWAP1 PUSH2 0x950 JUMP JUMPDEST PUSH1 0x40 MLOAD DUP1 SWAP2 SUB SWAP1 RETURN JUMPDEST PUSH2 0x14D PUSH1 0x4 DUP1 CALLDATASIZE SUB DUP2 ADD SWAP1 PUSH2 0x148 SWAP2 SWAP1 PUSH2 0x972 JUMP JUMPDEST PUSH2 0x462 JUMP JUMPDEST STOP JUMPDEST PUSH1 0x1 PUSH1 0x20 MSTORE DUP1 PUSH1 0x0 MSTORE PUSH1 0x40 PUSH1 0x0 KECCAK256 PUSH1 0x0 SWAP2 POP SLOAD SWAP1 PUSH2 0x100 EXP SWAP1 DIV PUSH20 0xFFFFFFFFFFFFFFFFFFFFFFFFFFFFFFFFFFFFFFFF AND DUP2 JUMP JUMPDEST PUSH1 0x3 SLOAD DUP2 JUMP JUMPDEST PUSH1 0x0 DUP3 DUP3 SWAP1 PUSH2 0x197 SWAP2 SWAP1 PUSH2 0xA0B JUMP JUMPDEST SWAP1 POP PUSH1 0x0 PUSH20 0xFFFFFFFFFFFFFFFFFFFFFFFFFFFFFFFFFFFFFFFF AND PUSH1 0x1 PUSH1 0x0 DUP4 DUP2 MSTORE PUSH1 0x20 ADD SWAP1 DUP2 MSTORE PUSH1 0x20 ADD PUSH1 0x0 KECCAK256 PUSH1 0x0 SWAP1 SLOAD SWAP1 PUSH2 0x100 EXP SWAP1 DIV PUSH20 0xFFFFFFFFFFFFFFFFFFFFFFFFFFFFFFFFFFFFFFFF AND PUSH20 0xFFFFFFFFFFFFFFFFFFFFFFFFFFFFFFFFFFFFFFFF AND EQ PUSH2 0x23B JUMPI PUSH1 0x40 MLOAD PUSH32 0x8C379A000000000000000000000000000000000000000000000000000000000 DUP2 MSTORE PUSH1 0x4 ADD PUSH2 0x232 SWAP1 PUSH2 0xAB6 JUMP JUMPDEST PUSH1 0x40 MLOAD DUP1 SWAP2 SUB SWAP1 REVERT JUMPDEST CALLER PUSH1 0x1 PUSH1 0x0 DUP4 DUP2 MSTORE PUSH1 0x20 ADD SWAP1 DUP2 MSTORE PUSH1 0x20 ADD PUSH1 0x0 KECCAK256 PUSH1 0x0 PUSH2 0x100 EXP DUP2 SLOAD DUP2 PUSH20 0xFFFFFFFFFFFFFFFFFFFFFFFFFFFFFFFFFFFFFFFF MUL NOT AND SWAP1 DUP4 PUSH20 0xFFFFFFFFFFFFFFFFFFFFFFFFFFFFFFFFFFFFFFFF AND MUL OR SWAP1 SSTORE POP DUP3 DUP3 PUSH1 0x0 DUP1 DUP5 DUP2 MSTORE PUSH1 0x20 ADD SWAP1 DUP2 MSTORE PUSH1 0x20 ADD PUSH1 0x0 KECCAK256 SWAP2 DUP3 PUSH2 0x2AE SWAP3 SWAP2 SWAP1 PUSH2 0xD0F JUMP JUMPDEST POP DUP1 PUSH32 0x3E0FD1F88BA9B454EC9A02B112550744F1B4D541B645F74B7732EB77EBC5EDF2 CALLER DUP6 DUP6 PUSH1 0x40 MLOAD PUSH2 0x2E3 SWAP4 SWAP3 SWAP2 SWAP1 PUSH2 0xE1B JUMP JUMPDEST PUSH1 0x40 MLOAD DUP1 SWAP2 SUB SWAP1 LOG2 POP POP POP JUMP JUMPDEST PUSH1 0x2 PUSH1 0x20 MSTORE DUP1 PUSH1 0x0 MSTORE PUSH1 0x40 PUSH1 0x0 KECCAK256 PUSH1 0x0 SWAP2 POP SWAP1 POP DUP1 PUSH1 0x0 ADD PUSH1 0x0 SWAP1 SLOAD SWAP1 PUSH2 0x100 EXP SWAP1 DIV PUSH20 0xFFFFFFFFFFFFFFFFFFFFFFFFFFFFFFFFFFFFFFFF AND SWAP1 DUP1 PUSH1 0x1 ADD SLOAD SWAP1 DUP1 PUSH1 0x2 ADD DUP1 SLOAD PUSH2 0x33F SWAP1 PUSH2 0xB3F JUMP JUMPDEST DUP1 PUSH1 0x1F ADD PUSH1 0x20 DUP1 SWAP2 DIV MUL PUSH1 0x20 ADD PUSH1 0x40 MLOAD SWAP1 DUP2 ADD PUSH1 0x40 MSTORE DUP1 SWAP3 SWAP2 SWAP1 DUP2 DUP2 MSTORE PUSH1 0x20 ADD DUP3 DUP1 SLOAD PUSH2 0x36B SWAP1 PUSH2 0xB3F JUMP JUMPDEST DUP1 ISZERO PUSH2 0x3B8 JUMPI DUP1 PUSH1 0x1F LT PUSH2 0x38D JUMPI PUSH2 0x100 DUP1 DUP4 SLOAD DIV MUL DUP4 MSTORE SWAP2 PUSH1 0x20 ADD SWAP2 PUSH2 0x3B8 JUMP JUMPDEST DUP3 ADD SWAP2 SWAP1 PUSH1 0x0 MSTORE PUSH1 0x20 PUSH1 0x0 KECCAK256 SWAP1 JUMPDEST DUP2 SLOAD DUP2 MSTORE SWAP1 PUSH1 0x1 ADD SWAP1 PUSH1 0x20 ADD DUP1 DUP4 GT PUSH2 0x39B JUMPI DUP3 SWAP1 SUB PUSH1 0x1F AND DUP3 ADD SWAP2 JUMPDEST POP POP POP POP POP SWAP1 POP DUP4 JUMP JUMPDEST PUSH1 0x0 PUSH1 0x20 MSTORE DUP1 PUSH1 0x0 MSTORE PUSH1 0x40 PUSH1 0x0 KECCAK256 PUSH1 0x0 SWAP2 POP SWAP1 POP DUP1 SLOAD PUSH2 0x3E1 SWAP1 PUSH2 0xB3F JUMP JUMPDEST DUP1 PUSH1 0x1F ADD PUSH1 0x20 DUP1 SWAP2 DIV MUL PUSH1 0x20 ADD PUSH1 0x40 MLOAD SWAP1 DUP2 ADD PUSH1 0x40 MSTORE DUP1 SWAP3 SWAP2 SWAP1 DUP2 DUP2 MSTORE PUSH1 0x20 ADD DUP3 DUP1 SLOAD PUSH2 0x40D SWAP1 PUSH2 0xB3F JUMP JUMPDEST DUP1 ISZERO PUSH2 0x45A JUMPI DUP1 PUSH1 0x1F LT PUSH2 0x42F JUMPI PUSH2 0x100 DUP1 DUP4 SLOAD DIV MUL DUP4 MSTORE SWAP2 PUSH1 0x20 ADD SWAP2 PUSH2 0x45A JUMP JUMPDEST DUP3 ADD SWAP2 SWAP1 PUSH1 0x0 MSTORE PUSH1 0x20 PUSH1 0x0 KECCAK256 SWAP1 JUMPDEST DUP2 SLOAD DUP2 MSTORE SWAP1 PUSH1 0x1 ADD SWAP1 PUSH1 0x20 ADD DUP1 DUP4 GT PUSH2 0x43D JUMPI DUP3 SWAP1 SUB PUSH1 0x1F AND DUP3 ADD SWAP2 JUMPDEST POP POP POP POP POP DUP2 JUMP JUMPDEST PUSH1 0x0 DUP5 DUP5 SWAP1 PUSH2 0x471 SWAP2 SWAP1 PUSH2 0xA0B JUMP JUMPDEST SWAP1 POP PUSH1 0x0 PUSH20 0xFFFFFFFFFFFFFFFFFFFFFFFFFFFFFFFFFFFFFFFF AND PUSH1 0x1 PUSH1 0x0 DUP4 DUP2 MSTORE PUSH1 0x20 ADD SWAP1 DUP2 MSTORE PUSH1 0x20 ADD PUSH1 0x0 KECCAK256 PUSH1 0x0 SWAP1 SLOAD SWAP1 PUSH2 0x100 EXP SWAP1 DIV PUSH20 0xFFFFFFFFFFFFFFFFFFFFFFFFFFFFFFFFFFFFFFFF AND PUSH20 0xFFFFFFFFFFFFFFFFFFFFFFFFFFFFFFFFFFFFFFFF AND SUB PUSH2 0x515 JUMPI PUSH1 0x40 MLOAD PUSH32 0x8C379A000000000000000000000000000000000000000000000000000000000 DUP2 MSTORE PUSH1 0x4 ADD PUSH2 0x50C SWAP1 PUSH2 0xE99 JUMP JUMPDEST PUSH1 0x40 MLOAD DUP1 SWAP2 SUB SWAP1 REVERT JUMPDEST PUSH1 0x40 MLOAD DUP1 PUSH1 0x60 ADD PUSH1 0x40 MSTORE DUP1 CALLER PUSH20 0xFFFFFFFFFFFFFFFFFFFFFFFFFFFFFFFFFFFFFFFF AND DUP2 MSTORE PUSH1 0x20 ADD DUP3 DUP2 MSTORE PUSH1 0x20 ADD DUP5 DUP5 DUP1 DUP1 PUSH1 0x1F ADD PUSH1 0x20 DUP1 SWAP2 DIV MUL PUSH1 0x20 ADD PUSH1 0x40 MLOAD SWAP1 DUP2 ADD PUSH1 0x40 MSTORE DUP1 SWAP4 SWAP3 SWAP2 SWAP1 DUP2 DUP2 MSTORE PUSH1 0x20 ADD DUP4 DUP4 DUP1 DUP3 DUP5 CALLDATACOPY PUSH1 0x0 DUP2 DUP5 ADD MSTORE PUSH1 0x1F NOT PUSH1 0x1F DUP3 ADD AND SWAP1 POP DUP1 DUP4 ADD SWAP3 POP POP POP POP POP POP POP DUP2 MSTORE POP PUSH1 0x2 PUSH1 0x0 PUSH1 0x3 SLOAD DUP2 MSTORE PUSH1 0x20 ADD SWAP1 DUP2 MSTORE PUSH1 0x20 ADD PUSH1 0x0 KECCAK256 PUSH1 0x0 DUP3 ADD MLOAD DUP2 PUSH1 0x0 ADD PUSH1 0x0 PUSH2 0x100 EXP DUP2 SLOAD DUP2 PUSH20 0xFFFFFFFFFFFFFFFFFFFFFFFFFFFFFFFFFFFFFFFF MUL NOT AND SWAP1 DUP4 PUSH20 0xFFFFFFFFFFFFFFFFFFFFFFFFFFFFFFFFFFFFFFFF AND MUL OR SWAP1 SSTORE POP PUSH1 0x20 DUP3 ADD MLOAD DUP2 PUSH1 0x1 ADD SSTORE PUSH1 0x40 DUP3 ADD MLOAD DUP2 PUSH1 0x2 ADD SWAP1 DUP2 PUSH2 0x605 SWAP2 SWAP1 PUSH2 0xEB9 JUMP JUMPDEST POP SWAP1 POP POP DUP1 PUSH1 0x3 SLOAD PUSH32 0x8A652330FA0687DD87516E0FCA8E21318A3C1DDAC65C543BD7971A7FBB69DD3B CALLER DUP7 DUP7 DUP11 DUP11 PUSH1 0x40 MLOAD PUSH2 0x644 SWAP6 SWAP5 SWAP4 SWAP3 SWAP2 SWAP1 PUSH2 0xF8B JUMP JUMPDEST PUSH1 0x40 MLOAD DUP1 SWAP2 SUB SWAP1 LOG3 PUSH1 0x3 PUSH1 0x0 DUP2 SLOAD DUP1 SWAP3 SWAP2 SWAP1 PUSH2 0x65F SWAP1 PUSH2 0x1003 JUMP JUMPDEST SWAP2 SWAP1 POP SSTORE POP POP POP POP POP POP JUMP JUMPDEST PUSH1 0x0 DUP1 REVERT JUMPDEST PUSH1 0x0 DUP1 REVERT JUMPDEST PUSH1 0x0 DUP2 SWAP1 POP SWAP2 SWAP1 POP JUMP JUMPDEST PUSH2 0x688 DUP2 PUSH2 0x675 JUMP JUMPDEST DUP2 EQ PUSH2 0x693 JUMPI PUSH1 0x0 DUP1 REVERT JUMPDEST POP JUMP JUMPDEST PUSH1 0x0 DUP2 CALLDATALOAD SWAP1 POP PUSH2 0x6A5 DUP2 PUSH2 0x67F JUMP JUMPDEST SWAP3 SWAP2 POP POP JUMP JUMPDEST PUSH1 0x0 PUSH1 0x20 DUP3 DUP5 SUB SLT ISZERO PUSH2 0x6C1 JUMPI PUSH2 0x6C0 PUSH2 0x66B JUMP JUMPDEST JUMPDEST PUSH1 0x0 PUSH2 0x6CF DUP5 DUP3 DUP6 ADD PUSH2 0x696 JUMP JUMPDEST SWAP2 POP POP SWAP3 SWAP2 POP POP JUMP JUMPDEST PUSH1 0x0 PUSH20 0xFFFFFFFFFFFFFFFFFFFFFFFFFFFFFFFFFFFFFFFF DUP3 AND SWAP1 POP SWAP2 SWAP1 POP JUMP JUMPDEST PUSH1 0x0 PUSH2 0x703 DUP3 PUSH2 0x6D8 JUMP JUMPDEST SWAP1 POP SWAP2 SWAP1 POP JUMP JUMPDEST PUSH2 0x713 DUP2 PUSH2 0x6F8 JUMP JUMPDEST DUP3 MSTORE POP POP JUMP JUMPDEST PUSH1 0x0 PUSH1 0x20 DUP3 ADD SWAP1 POP PUSH2 0x72E PUSH1 0x0 DUP4 ADD DUP5 PUSH2 0x70A JUMP JUMPDEST SWAP3 SWAP2 POP POP JUMP JUMPDEST PUSH1 0x0 DUP2 SWAP1 POP SWAP2 SWAP1 POP JUMP JUMPDEST PUSH2 0x747 DUP2 PUSH2 0x734 JUMP JUMPDEST DUP3 MSTORE POP POP JUMP JUMPDEST PUSH1 0x0 PUSH1 0x20 DUP3 ADD SWAP1 POP PUSH2 0x762 PUSH1 0x0 DUP4 ADD DUP5 PUSH2 0x73E JUMP JUMPDEST SWAP3 SWAP2 POP POP JUMP JUMPDEST PUSH1 0x0 DUP1 REVERT JUMPDEST PUSH1 0x0 DUP1 REVERT JUMPDEST PUSH1 0x0 DUP1 REVERT JUMPDEST PUSH1 0x0 DUP1 DUP4 PUSH1 0x1F DUP5 ADD SLT PUSH2 0x78D JUMPI PUSH2 0x78C PUSH2 0x768 JUMP JUMPDEST JUMPDEST DUP3 CALLDATALOAD SWAP1 POP PUSH8 0xFFFFFFFFFFFFFFFF DUP2 GT ISZERO PUSH2 0x7AA JUMPI PUSH2 0x7A9 PUSH2 0x76D JUMP JUMPDEST JUMPDEST PUSH1 0x20 DUP4 ADD SWAP2 POP DUP4 PUSH1 0x1 DUP3 MUL DUP4 ADD GT ISZERO PUSH2 0x7C6 JUMPI PUSH2 0x7C5 PUSH2 0x772 JUMP JUMPDEST JUMPDEST SWAP3 POP SWAP3 SWAP1 POP JUMP JUMPDEST PUSH1 0x0 DUP1 PUSH1 0x20 DUP4 DUP6 SUB SLT ISZERO PUSH2 0x7E4 JUMPI PUSH2 0x7E3 PUSH2 0x66B JUMP JUMPDEST JUMPDEST PUSH1 0x0 DUP4 ADD CALLDATALOAD PUSH8 0xFFFFFFFFFFFFFFFF DUP2 GT ISZERO PUSH2 0x802 JUMPI PUSH2 0x801 PUSH2 0x670 JUMP JUMPDEST JUMPDEST PUSH2 0x80E DUP6 DUP3 DUP7 ADD PUSH2 0x777 JUMP JUMPDEST SWAP3 POP SWAP3 POP POP SWAP3 POP SWAP3 SWAP1 POP JUMP JUMPDEST PUSH2 0x823 DUP2 PUSH2 0x734 JUMP JUMPDEST DUP2 EQ PUSH2 0x82E JUMPI PUSH1 0x0 DUP1 REVERT JUMPDEST POP JUMP JUMPDEST PUSH1 0x0 DUP2 CALLDATALOAD SWAP1 POP PUSH2 0x840 DUP2 PUSH2 0x81A JUMP JUMPDEST SWAP3 SWAP2 POP POP JUMP JUMPDEST PUSH1 0x0 PUSH1 0x20 DUP3 DUP5 SUB SLT ISZERO PUSH2 0x85C JUMPI PUSH2 0x85B PUSH2 0x66B JUMP JUMPDEST JUMPDEST PUSH1 0x0 PUSH2 0x86A DUP5 DUP3 DUP6 ADD PUSH2 0x831 JUMP JUMPDEST SWAP2 POP POP SWAP3 SWAP2 POP POP JUMP JUMPDEST PUSH2 0x87C DUP2 PUSH2 0x675 JUMP JUMPDEST DUP3 MSTORE POP POP JUMP JUMPDEST PUSH1 0x0 DUP2 MLOAD SWAP1 POP SWAP2 SWAP1 POP JUMP JUMPDEST PUSH1 0x0 DUP3 DUP3 MSTORE PUSH1 0x20 DUP3 ADD SWAP1 POP SWAP3 SWAP2 POP POP JUMP JUMPDEST PUSH1 0x0 JUMPDEST DUP4 DUP2 LT ISZERO PUSH2 0x8BC JUMPI DUP1 DUP3 ADD MLOAD DUP2 DUP5 ADD MSTORE PUSH1 0x20 DUP2 ADD SWAP1 POP PUSH2 0x8A1 JUMP JUMPDEST PUSH1 0x0 DUP5 DUP5 ADD MSTORE POP POP POP POP JUMP JUMPDEST PUSH1 0x0 PUSH1 0x1F NOT PUSH1 0x1F DUP4 ADD AND SWAP1 POP SWAP2 SWAP1 POP JUMP JUMPDEST PUSH1 0x0 PUSH2 0x8E4 DUP3 PUSH2 0x882 JUMP JUMPDEST PUSH2 0x8EE DUP2 DUP6 PUSH2 0x88D JUMP JUMPDEST SWAP4 POP PUSH2 0x8FE DUP2 DUP6 PUSH1 0x20 DUP7 ADD PUSH2 0x89E JUMP JUMPDEST PUSH2 0x907 DUP2 PUSH2 0x8C8 JUMP JUMPDEST DUP5 ADD SWAP2 POP POP SWAP3 SWAP2 POP POP JUMP JUMPDEST PUSH1 0x0 PUSH1 0x60 DUP3 ADD SWAP1 POP PUSH2 0x927 PUSH1 0x0 DUP4 ADD DUP7 PUSH2 0x70A JUMP JUMPDEST PUSH2 0x934 PUSH1 0x20 DUP4 ADD DUP6 PUSH2 0x873 JUMP JUMPDEST DUP2 DUP2 SUB PUSH1 0x40 DUP4 ADD MSTORE PUSH2 0x946 DUP2 DUP5 PUSH2 0x8D9 JUMP JUMPDEST SWAP1 POP SWAP5 SWAP4 POP POP POP POP JUMP JUMPDEST PUSH1 0x0 PUSH1 0x20 DUP3 ADD SWAP1 POP DUP2 DUP2 SUB PUSH1 0x0 DUP4 ADD MSTORE PUSH2 0x96A DUP2 DUP5 PUSH2 0x8D9 JUMP JUMPDEST SWAP1 POP SWAP3 SWAP2 POP POP JUMP JUMPDEST PUSH1 0x0 DUP1 PUSH1 0x0 DUP1 PUSH1 0x40 DUP6 DUP8 SUB SLT ISZERO PUSH2 0x98C JUMPI PUSH2 0x98B PUSH2 0x66B JUMP JUMPDEST JUMPDEST PUSH1 0x0 DUP6 ADD CALLDATALOAD PUSH8 0xFFFFFFFFFFFFFFFF DUP2 GT ISZERO PUSH2 0x9AA JUMPI PUSH2 0x9A9 PUSH2 0x670 JUMP JUMPDEST JUMPDEST PUSH2 0x9B6 DUP8 DUP3 DUP9 ADD PUSH2 0x777 JUMP JUMPDEST SWAP5 POP SWAP5 POP POP PUSH1 0x20 DUP6 ADD CALLDATALOAD PUSH8 0xFFFFFFFFFFFFFFFF DUP2 GT ISZERO PUSH2 0x9D9 JUMPI PUSH2 0x9D8 PUSH2 0x670 JUMP JUMPDEST JUMPDEST PUSH2 0x9E5 DUP8 DUP3 DUP9 ADD PUSH2 0x777 JUMP JUMPDEST SWAP3 POP SWAP3 POP POP SWAP3 SWAP6 SWAP2 SWAP5 POP SWAP3 POP JUMP JUMPDEST PUSH1 0x0 DUP3 SWAP1 POP SWAP3 SWAP2 POP POP JUMP JUMPDEST PUSH1 0x0 DUP3 DUP3 SHL SWAP1 POP SWAP3 SWAP2 POP POP JUMP JUMPDEST PUSH1 0x0 PUSH2 0xA17 DUP4 DUP4 PUSH2 0x9F3 JUMP JUMPDEST DUP3 PUSH2 0xA22 DUP2 CALLDATALOAD PUSH2 0x675 JUMP JUMPDEST SWAP3 POP PUSH1 0x20 DUP3 LT ISZERO PUSH2 0xA62 JUMPI PUSH2 0xA5D PUSH32 0xFFFFFFFFFFFFFFFFFFFFFFFFFFFFFFFFFFFFFFFFFFFFFFFFFFFFFFFFFFFFFFFF DUP4 PUSH1 0x20 SUB PUSH1 0x8 MUL PUSH2 0x9FE JUMP JUMPDEST DUP4 AND SWAP3 POP JUMPDEST POP POP SWAP3 SWAP2 POP POP JUMP JUMPDEST PUSH32 0x436C617373206578697374730000000000000000000000000000000000000000 PUSH1 0x0 DUP3 ADD MSTORE POP JUMP JUMPDEST PUSH1 0x0 PUSH2 0xAA0 PUSH1 0xC DUP4 PUSH2 0x88D JUMP JUMPDEST SWAP2 POP PUSH2 0xAAB DUP3 PUSH2 0xA6A JUMP JUMPDEST PUSH1 0x20 DUP3 ADD SWAP1 POP SWAP2 SWAP1 POP JUMP JUMPDEST PUSH1 0x0 PUSH1 0x20 DUP3 ADD SWAP1 POP DUP2 DUP2 SUB PUSH1 0x0 DUP4 ADD MSTORE PUSH2 0xACF DUP2 PUSH2 0xA93 JUMP JUMPDEST SWAP1 POP SWAP2 SWAP1 POP JUMP JUMPDEST PUSH1 0x0 DUP3 SWAP1 POP SWAP3 SWAP2 POP POP JUMP JUMPDEST PUSH32 0x4E487B7100000000000000000000000000000000000000000000000000000000 PUSH1 0x0 MSTORE PUSH1 0x41 PUSH1 0x4 MSTORE PUSH1 0x24 PUSH1 0x0 REVERT JUMPDEST PUSH32 0x4E487B7100000000000000000000000000000000000000000000000000000000 PUSH1 0x0 MSTORE PUSH1 0x22 PUSH1 0x4 MSTORE PUSH1 0x24 PUSH1 0x0 REVERT JUMPDEST PUSH1 0x0 PUSH1 0x2 DUP3 DIV SWAP1 POP PUSH1 0x1 DUP3 AND DUP1 PUSH2 0xB57 JUMPI PUSH1 0x7F DUP3 AND SWAP2 POP JUMPDEST PUSH1 0x20 DUP3 LT DUP2 SUB PUSH2 0xB6A JUMPI PUSH2 0xB69 PUSH2 0xB10 JUMP JUMPDEST JUMPDEST POP SWAP2 SWAP1 POP JUMP JUMPDEST PUSH1 0x0 DUP2 SWAP1 POP DUP2 PUSH1 0x0 MSTORE PUSH1 0x20 PUSH1 0x0 KECCAK256 SWAP1 POP SWAP2 SWAP1 POP JUMP JUMPDEST PUSH1 0x0 PUSH1 0x20 PUSH1 0x1F DUP4 ADD DIV SWAP1 POP SWAP2 SWAP1 POP JUMP JUMPDEST PUSH1 0x0 PUSH1 0x8 DUP4 MUL PUSH2 0xBC5 PUSH32 0xFFFFFFFFFFFFFFFFFFFFFFFFFFFFFFFFFFFFFFFFFFFFFFFFFFFFFFFFFFFFFFFF DUP3 PUSH2 0x9FE JUMP JUMPDEST PUSH2 0xBCF DUP7 DUP4 PUSH2 0x9FE JUMP JUMPDEST SWAP6 POP DUP1 NOT DUP5 AND SWAP4 POP DUP1 DUP7 AND DUP5 OR SWAP3 POP POP POP SWAP4 SWAP3 POP POP POP JUMP JUMPDEST PUSH1 0x0 DUP2 SWAP1 POP SWAP2 SWAP1 POP JUMP JUMPDEST PUSH1 0x0 PUSH2 0xC0C PUSH2 0xC07 PUSH2 0xC02 DUP5 PUSH2 0x734 JUMP JUMPDEST PUSH2 0xBE7 JUMP JUMPDEST PUSH2 0x734 JUMP JUMPDEST SWAP1 POP SWAP2 SWAP1 POP JUMP JUMPDEST PUSH1 0x0 DUP2 SWAP1 POP SWAP2 SWAP1 POP JUMP JUMPDEST PUSH2 0xC26 DUP4 PUSH2 0xBF1 JUMP JUMPDEST PUSH2 0xC3A PUSH2 0xC32 DUP3 PUSH2 0xC13 JUMP JUMPDEST DUP5 DUP5 SLOAD PUSH2 0xB95 JUMP JUMPDEST DUP3 SSTORE POP POP POP POP JUMP JUMPDEST PUSH1 0x0 SWAP1 JUMP JUMPDEST PUSH2 0xC4F PUSH2 0xC42 JUMP JUMPDEST PUSH2 0xC5A DUP2 DUP5 DUP5 PUSH2 0xC1D JUMP JUMPDEST POP POP POP JUMP JUMPDEST JUMPDEST DUP2 DUP2 LT ISZERO PUSH2 0xC7E JUMPI PUSH2 0xC73 PUSH1 0x0 DUP3 PUSH2 0xC47 JUMP JUMPDEST PUSH1 0x1 DUP2 ADD SWAP1 POP PUSH2 0xC60 JUMP JUMPDEST POP POP JUMP JUMPDEST PUSH1 0x1F DUP3 GT ISZERO PUSH2 0xCC3 JUMPI PUSH2 0xC94 DUP2 PUSH2 0xB70 JUMP JUMPDEST PUSH2 0xC9D DUP5 PUSH2 0xB85 JUMP JUMPDEST DUP2 ADD PUSH1 0x20 DUP6 LT ISZERO PUSH2 0xCAC JUMPI DUP2 SWAP1 POP JUMPDEST PUSH2 0xCC0 PUSH2 0xCB8 DUP6 PUSH2 0xB85 JUMP JUMPDEST DUP4 ADD DUP3 PUSH2 0xC5F JUMP JUMPDEST POP POP JUMPDEST POP POP POP JUMP JUMPDEST PUSH1 0x0 DUP3 DUP3 SHR SWAP1 POP SWAP3 SWAP2 POP POP JUMP JUMPDEST PUSH1 0x0 PUSH2 0xCE6 PUSH1 0x0 NOT DUP5 PUSH1 0x8 MUL PUSH2 0xCC8 JUMP JUMPDEST NOT DUP1 DUP4 AND SWAP2 POP POP SWAP3 SWAP2 POP POP JUMP JUMPDEST PUSH1 0x0 PUSH2 0xCFF DUP4 DUP4 PUSH2 0xCD5 JUMP JUMPDEST SWAP2 POP DUP3 PUSH1 0x2 MUL DUP3 OR SWAP1 POP SWAP3 SWAP2 POP POP JUMP JUMPDEST PUSH2 0xD19 DUP4 DUP4 PUSH2 0xAD6 JUMP JUMPDEST PUSH8 0xFFFFFFFFFFFFFFFF DUP2 GT ISZERO PUSH2 0xD32 JUMPI PUSH2 0xD31 PUSH2 0xAE1 JUMP JUMPDEST JUMPDEST PUSH2 0xD3C DUP3 SLOAD PUSH2 0xB3F JUMP JUMPDEST PUSH2 0xD47 DUP3 DUP3 DUP6 PUSH2 0xC82 JUMP JUMPDEST PUSH1 0x0 PUSH1 0x1F DUP4 GT PUSH1 0x1 DUP2 EQ PUSH2 0xD76 JUMPI PUSH1 0x0 DUP5 ISZERO PUSH2 0xD64 JUMPI DUP3 DUP8 ADD CALLDATALOAD SWAP1 POP JUMPDEST PUSH2 0xD6E DUP6 DUP3 PUSH2 0xCF3 JUMP JUMPDEST DUP7 SSTORE POP PUSH2 0xDD6 JUMP JUMPDEST PUSH1 0x1F NOT DUP5 AND PUSH2 0xD84 DUP7 PUSH2 0xB70 JUMP JUMPDEST PUSH1 0x0 JUMPDEST DUP3 DUP2 LT ISZERO PUSH2 0xDAC JUMPI DUP5 DUP10 ADD CALLDATALOAD DUP3 SSTORE PUSH1 0x1 DUP3 ADD SWAP2 POP PUSH1 0x20 DUP6 ADD SWAP5 POP PUSH1 0x20 DUP2 ADD SWAP1 POP PUSH2 0xD87 JUMP JUMPDEST DUP7 DUP4 LT ISZERO PUSH2 0xDC9 JUMPI DUP5 DUP10 ADD CALLDATALOAD PUSH2 0xDC5 PUSH1 0x1F DUP10 AND DUP3 PUSH2 0xCD5 JUMP JUMPDEST DUP4 SSTORE POP JUMPDEST PUSH1 0x1 PUSH1 0x2 DUP9 MUL ADD DUP9 SSTORE POP POP POP JUMPDEST POP POP POP POP POP POP POP JUMP JUMPDEST DUP3 DUP2 DUP4 CALLDATACOPY PUSH1 0x0 DUP4 DUP4 ADD MSTORE POP POP POP JUMP JUMPDEST PUSH1 0x0 PUSH2 0xDFA DUP4 DUP6 PUSH2 0x88D JUMP JUMPDEST SWAP4 POP PUSH2 0xE07 DUP4 DUP6 DUP5 PUSH2 0xDDF JUMP JUMPDEST PUSH2 0xE10 DUP4 PUSH2 0x8C8 JUMP JUMPDEST DUP5 ADD SWAP1 POP SWAP4 SWAP3 POP POP POP JUMP JUMPDEST PUSH1 0x0 PUSH1 0x40 DUP3 ADD SWAP1 POP PUSH2 0xE30 PUSH1 0x0 DUP4 ADD DUP7 PUSH2 0x70A JUMP JUMPDEST DUP2 DUP2 SUB PUSH1 0x20 DUP4 ADD MSTORE PUSH2 0xE43 DUP2 DUP5 DUP7 PUSH2 0xDEE JUMP JUMPDEST SWAP1 POP SWAP5 SWAP4 POP POP POP POP JUMP JUMPDEST PUSH32 0x436C617373206E6F7420666F756E640000000000000000000000000000000000 PUSH1 0x0 DUP3 ADD MSTORE POP JUMP JUMPDEST PUSH1 0x0 PUSH2 0xE83 PUSH1 0xF DUP4 PUSH2 0x88D JUMP JUMPDEST SWAP2 POP PUSH2 0xE8E DUP3 PUSH2 0xE4D JUMP JUMPDEST PUSH1 0x20 DUP3 ADD SWAP1 POP SWAP2 SWAP1 POP JUMP JUMPDEST PUSH1 0x0 PUSH1 0x20 DUP3 ADD SWAP1 POP DUP2 DUP2 SUB PUSH1 0x0 DUP4 ADD MSTORE PUSH2 0xEB2 DUP2 PUSH2 0xE76 JUMP JUMPDEST SWAP1 POP SWAP2 SWAP1 POP JUMP JUMPDEST PUSH2 0xEC2 DUP3 PUSH2 0x882 JUMP JUMPDEST PUSH8 0xFFFFFFFFFFFFFFFF DUP2 GT ISZERO PUSH2 0xEDB JUMPI PUSH2 0xEDA PUSH2 0xAE1 JUMP JUMPDEST JUMPDEST PUSH2 0xEE5 DUP3 SLOAD PUSH2 0xB3F JUMP JUMPDEST PUSH2 0xEF0 DUP3 DUP3 DUP6 PUSH2 0xC82 JUMP JUMPDEST PUSH1 0x0 PUSH1 0x20 SWAP1 POP PUSH1 0x1F DUP4 GT PUSH1 0x1 DUP2 EQ PUSH2 0xF23 JUMPI PUSH1 0x0 DUP5 ISZERO PUSH2 0xF11 JUMPI DUP3 DUP8 ADD MLOAD SWAP1 POP JUMPDEST PUSH2 0xF1B DUP6 DUP3 PUSH2 0xCF3 JUMP JUMPDEST DUP7 SSTORE POP PUSH2 0xF83 JUMP JUMPDEST PUSH1 0x1F NOT DUP5 AND PUSH2 0xF31 DUP7 PUSH2 0xB70 JUMP JUMPDEST PUSH1 0x0 JUMPDEST DUP3 DUP2 LT ISZERO PUSH2 0xF59 JUMPI DUP5 DUP10 ADD MLOAD DUP3 SSTORE PUSH1 0x1 DUP3 ADD SWAP2 POP PUSH1 0x20 DUP6 ADD SWAP5 POP PUSH1 0x20 DUP2 ADD SWAP1 POP PUSH2 0xF34 JUMP JUMPDEST DUP7 DUP4 LT ISZERO PUSH2 0xF76 JUMPI DUP5 DUP10 ADD MLOAD PUSH2 0xF72 PUSH1 0x1F DUP10 AND DUP3 PUSH2 0xCD5 JUMP JUMPDEST DUP4 SSTORE POP JUMPDEST PUSH1 0x1 PUSH1 0x2 DUP9 MUL ADD DUP9 SSTORE POP POP POP JUMPDEST POP POP POP POP POP POP JUMP JUMPDEST PUSH1 0x0 PUSH1 0x60 DUP3 ADD SWAP1 POP PUSH2 0xFA0 PUSH1 0x0 DUP4 ADD DUP9 PUSH2 0x70A JUMP JUMPDEST DUP2 DUP2 SUB PUSH1 0x20 DUP4 ADD MSTORE PUSH2 0xFB3 DUP2 DUP7 DUP9 PUSH2 0xDEE JUMP JUMPDEST SWAP1 POP DUP2 DUP2 SUB PUSH1 0x40 DUP4 ADD MSTORE PUSH2 0xFC8 DUP2 DUP5 DUP7 PUSH2 0xDEE JUMP JUMPDEST SWAP1 POP SWAP7 SWAP6 POP POP POP POP POP POP JUMP JUMPDEST PUSH32 0x4E487B7100000000000000000000000000000000000000000000000000000000 PUSH1 0x0 MSTORE PUSH1 0x11 PUSH1 0x4 MSTORE PUSH1 0x24 PUSH1 0x0 REVERT JUMPDEST PUSH1 0x0 PUSH2 0x100E DUP3 PUSH2 0x734 JUMP JUMPDEST SWAP2 POP PUSH32 0xFFFFFFFFFFFFFFFFFFFFFFFFFFFFFFFFFFFFFFFFFFFFFFFFFFFFFFFFFFFFFFFF DUP3 SUB PUSH2 0x1040 JUMPI PUSH2 0x103F PUSH2 0xFD4 JUMP JUMPDEST JUMPDEST PUSH1 0x1 DUP3 ADD SWAP1 POP SWAP2 SWAP1 POP JUMP INVALID LOG2 PUSH5 0x6970667358 0x22 SLT KECCAK256 PUSH22 0xD5D9B167BDAFB38A066075B901676B2F5421AC9A434C PUSH12 0xCCE14D504E76361564736F6C PUSH4 0x4300081C STOP CALLER "
        },
        "methodIdentifiers": {
          "classNameRegistry(bytes32)": "c1f8e538",
          "classOwners(bytes32)": "47f77910",
          "embodiments(uint256)": "b1aed4f0",
          "nextId()": "61b8ce8c",
          "registerClass(string)": "a2be0f9d",
          "registerInstance(string,string)": "ebd541b6"
        }
      }
    }
  }
}